{
  "_format": "hh-sol-artifact-1",
  "contractName": "CertificateVerification",
  "sourceName": "contracts/CertificateVerification.sol",
  "abi": [
    {
      "inputs": [],
      "stateMutability": "nonpayable",
      "type": "constructor"
    },
    {
      "anonymous": false,
      "inputs": [
        {
          "indexed": true,
          "internalType": "uint256",
          "name": "anomalyId",
          "type": "uint256"
        },
        {
          "indexed": true,
          "internalType": "string",
          "name": "certificateId",
          "type": "string"
        },
        {
          "indexed": false,
          "internalType": "string",
          "name": "reason",
          "type": "string"
        },
        {
          "indexed": true,
          "internalType": "address",
          "name": "reporter",
          "type": "address"
        },
        {
          "indexed": false,
          "internalType": "uint256",
          "name": "timestamp",
          "type": "uint256"
        }
      ],
      "name": "AnomalyDetected",
      "type": "event"
    },
    {
      "anonymous": false,
      "inputs": [
        {
          "indexed": true,
          "internalType": "string",
          "name": "certificateId",
          "type": "string"
        },
        {
          "indexed": true,
          "internalType": "string",
          "name": "hash",
          "type": "string"
        },
        {
          "indexed": true,
          "internalType": "address",
          "name": "issuer",
          "type": "address"
        },
        {
          "indexed": false,
          "internalType": "string",
          "name": "institution",
          "type": "string"
        },
        {
          "indexed": false,
          "internalType": "uint256",
          "name": "timestamp",
          "type": "uint256"
        }
      ],
      "name": "CertificateIssued",
      "type": "event"
    },
    {
      "anonymous": false,
      "inputs": [
        {
          "indexed": true,
          "internalType": "string",
          "name": "certificateId",
          "type": "string"
        },
        {
          "indexed": false,
          "internalType": "bool",
          "name": "isValid",
          "type": "bool"
        },
        {
          "indexed": false,
          "internalType": "uint256",
          "name": "timestamp",
          "type": "uint256"
        }
      ],
      "name": "CertificateVerified",
      "type": "event"
    },
    {
      "anonymous": false,
      "inputs": [
        {
          "indexed": true,
          "internalType": "address",
          "name": "issuer",
          "type": "address"
        },
        {
          "indexed": false,
          "internalType": "string",
          "name": "institution",
          "type": "string"
        }
      ],
      "name": "IssuerAuthorized",
      "type": "event"
    },
    {
      "anonymous": false,
      "inputs": [
        {
          "indexed": true,
          "internalType": "address",
          "name": "issuer",
          "type": "address"
        }
      ],
      "name": "IssuerDeauthorized",
      "type": "event"
    },
    {
      "anonymous": false,
      "inputs": [
        {
          "indexed": true,
          "internalType": "address",
          "name": "previousOwner",
          "type": "address"
        },
        {
          "indexed": true,
          "internalType": "address",
          "name": "newOwner",
          "type": "address"
        }
      ],
      "name": "OwnershipTransferred",
      "type": "event"
    },
    {
      "inputs": [
        {
          "internalType": "address",
          "name": "issuer",
          "type": "address"
        },
        {
          "internalType": "string",
          "name": "institution",
          "type": "string"
        }
      ],
      "name": "authorizeIssuer",
      "outputs": [],
      "stateMutability": "nonpayable",
      "type": "function"
    },
    {
      "inputs": [
        {
          "internalType": "string",
          "name": "hash",
          "type": "string"
        }
      ],
      "name": "checkDuplicateHash",
      "outputs": [
        {
          "internalType": "bool",
          "name": "exists",
          "type": "bool"
        }
      ],
      "stateMutability": "view",
      "type": "function"
    },
    {
      "inputs": [
        {
          "internalType": "address",
          "name": "issuer",
          "type": "address"
        }
      ],
      "name": "deauthorizeIssuer",
      "outputs": [],
      "stateMutability": "nonpayable",
      "type": "function"
    },
    {
      "inputs": [
        {
          "internalType": "uint256",
          "name": "offset",
          "type": "uint256"
        },
        {
          "internalType": "uint256",
          "name": "limit",
          "type": "uint256"
        }
      ],
      "name": "getAnomalies",
      "outputs": [
        {
          "internalType": "uint256[]",
          "name": "anomalyIds",
          "type": "uint256[]"
        },
        {
          "internalType": "string[]",
          "name": "certificateIds",
          "type": "string[]"
        },
        {
          "internalType": "string[]",
          "name": "reasons",
          "type": "string[]"
        },
        {
          "internalType": "uint256[]",
          "name": "timestamps",
          "type": "uint256[]"
        },
        {
          "internalType": "address[]",
          "name": "reporters",
          "type": "address[]"
        }
      ],
      "stateMutability": "view",
      "type": "function"
    },
    {
      "inputs": [
        {
          "internalType": "string",
          "name": "certificateId",
          "type": "string"
        }
      ],
      "name": "getCertificateDetails",
      "outputs": [
        {
          "internalType": "string",
          "name": "hash",
          "type": "string"
        },
        {
          "internalType": "address",
          "name": "issuer",
          "type": "address"
        },
        {
          "internalType": "uint256",
          "name": "timestamp",
          "type": "uint256"
        },
        {
          "internalType": "bool",
          "name": "isActive",
          "type": "bool"
        },
        {
          "internalType": "string",
          "name": "institution",
          "type": "string"
        }
      ],
      "stateMutability": "view",
      "type": "function"
    },
    {
      "inputs": [
        {
          "internalType": "uint256",
          "name": "offset",
          "type": "uint256"
        },
        {
          "internalType": "uint256",
          "name": "limit",
          "type": "uint256"
        }
      ],
      "name": "getCertificateIds",
      "outputs": [
        {
          "internalType": "string[]",
          "name": "certificateIds",
          "type": "string[]"
        }
      ],
      "stateMutability": "view",
      "type": "function"
    },
    {
      "inputs": [],
      "name": "getTotalAnomalies",
      "outputs": [
        {
          "internalType": "uint256",
          "name": "count",
          "type": "uint256"
        }
      ],
      "stateMutability": "view",
      "type": "function"
    },
    {
      "inputs": [],
      "name": "getTotalCertificates",
      "outputs": [
        {
          "internalType": "uint256",
          "name": "count",
          "type": "uint256"
        }
      ],
      "stateMutability": "view",
      "type": "function"
    },
    {
      "inputs": [
        {
          "internalType": "address",
          "name": "issuer",
          "type": "address"
        }
      ],
      "name": "isAuthorizedIssuer",
      "outputs": [
        {
          "internalType": "bool",
          "name": "isAuthorized",
          "type": "bool"
        }
      ],
      "stateMutability": "view",
      "type": "function"
    },
    {
      "inputs": [
        {
          "internalType": "string",
          "name": "certificateId",
          "type": "string"
        },
        {
          "internalType": "string",
          "name": "hash",
          "type": "string"
        },
        {
          "internalType": "string",
          "name": "institution",
          "type": "string"
        }
      ],
      "name": "issueCertificate",
      "outputs": [
        {
          "internalType": "bool",
          "name": "success",
          "type": "bool"
        }
      ],
      "stateMutability": "nonpayable",
      "type": "function"
    },
    {
      "inputs": [],
      "name": "owner",
      "outputs": [
        {
          "internalType": "address",
          "name": "",
          "type": "address"
        }
      ],
      "stateMutability": "view",
      "type": "function"
    },
    {
      "inputs": [],
      "name": "renounceOwnership",
      "outputs": [],
      "stateMutability": "nonpayable",
      "type": "function"
    },
    {
      "inputs": [
        {
          "internalType": "string",
          "name": "certificateId",
          "type": "string"
        },
        {
          "internalType": "string",
          "name": "reason",
          "type": "string"
        }
      ],
      "name": "reportAnomaly",
      "outputs": [],
      "stateMutability": "nonpayable",
      "type": "function"
    },
    {
      "inputs": [
        {
          "internalType": "address",
          "name": "newOwner",
          "type": "address"
        }
      ],
      "name": "transferOwnership",
      "outputs": [],
      "stateMutability": "nonpayable",
      "type": "function"
    },
    {
      "inputs": [
        {
          "internalType": "string",
          "name": "certificateId",
          "type": "string"
        },
        {
          "internalType": "string",
          "name": "hash",
          "type": "string"
        }
      ],
      "name": "verifyCertificate",
      "outputs": [
        {
          "internalType": "bool",
          "name": "isValid",
          "type": "bool"
        },
        {
          "internalType": "uint256",
          "name": "timestamp",
          "type": "uint256"
        },
        {
          "internalType": "string",
          "name": "institution",
          "type": "string"
        }
      ],
      "stateMutability": "view",
      "type": "function"
    }
  ],
  "bytecode": "0x608060405234801561001057600080fd5b5061001a33610023565b60018055610073565b600080546001600160a01b038381166001600160a01b0319831681178455604051919092169283917f8be0079c531659141344cd1fd0a4f28419497f9722a3daafe3b4186f6b6457e09190a35050565b611dc7806100826000396000f3fe608060405234801561001057600080fd5b50600436106100f55760003560e01c80637f8d3a3c11610097578063e662b77511610066578063e662b7751461021f578063e8ddea1214610227578063f2fde38b14610247578063fa433b361461025a57600080fd5b80637f8d3a3c146101cb57806382af01d3146101de5780638da5cb5b146101f1578063beec1caa1461020c57600080fd5b806331ba1966116100d357806331ba19661461015e5780633a71daf41461019a578063715018a6146101ad5780637843bb79146101b557600080fd5b8063037bd7b1146100fa57806313841e76146101275780632751f71b1461013c575b600080fd5b61010d6101083660046116c2565b61027e565b60405161011e9594939291906117c4565b60405180910390f35b61013a610135366004611903565b6106de565b005b61014f61014a366004611903565b6106f4565b60405161011e93929190611967565b61018a61016c3660046119ad565b6001600160a01b031660009081526006602052604090205460ff1690565b604051901515815260200161011e565b61013a6101a83660046119ad565b610992565b61013a610a62565b6101bd610a76565b60405190815260200161011e565b61013a6101d93660046119c8565b610a86565b61018a6101ec366004611a0c565b610bc7565b6000546040516001600160a01b03909116815260200161011e565b61018a61021a366004611a49565b610bf2565b6101bd611018565b61023a6102353660046116c2565b611023565b60405161011e9190611ad1565b61013a6102553660046119ad565b611196565b61026d610268366004611a0c565b61120f565b60405161011e959493929190611ae4565b606080606080606061028e611499565b600061029a8789611b49565b6009549091508111156102ac57506009545b6102b68882611b62565b67ffffffffffffffff8111156102ce576102ce611860565b6040519080825280602002602001820160405280156102f7578160200160208202803683370190505b5095506103048882611b62565b67ffffffffffffffff81111561031c5761031c611860565b60405190808252806020026020018201604052801561034f57816020015b606081526020019060019003908161033a5790505b50945061035c8882611b62565b67ffffffffffffffff81111561037457610374611860565b6040519080825280602002602001820160405280156103a757816020015b60608152602001906001900390816103925790505b5093506103b48882611b62565b67ffffffffffffffff8111156103cc576103cc611860565b6040519080825280602002602001820160405280156103f5578160200160208202803683370190505b5092506104028882611b62565b67ffffffffffffffff81111561041a5761041a611860565b604051908082528060200260200182016040528015610443578160200160208202803683370190505b509150875b818110156106d25760006009828154811061046557610465611b75565b906000526020600020015490506000600760008381526020019081526020016000206040518060800160405290816000820180546104a290611b8b565b80601f01602080910402602001604051908101604052809291908181526020018280546104ce90611b8b565b801561051b5780601f106104f05761010080835404028352916020019161051b565b820191906000526020600020905b8154815290600101906020018083116104fe57829003601f168201915b5050505050815260200160018201805461053490611b8b565b80601f016020809104026020016040519081016040528092919081815260200182805461056090611b8b565b80156105ad5780601f10610582576101008083540402835291602001916105ad565b820191906000526020600020905b81548152906001019060200180831161059057829003601f168201915b5050509183525050600282015460208201526003909101546001600160a01b0316604090910152905081896105e28d86611b62565b815181106105f2576105f2611b75565b602090810291909101015280518861060a8d86611b62565b8151811061061a5761061a611b75565b60200260200101819052508060200151878c856106379190611b62565b8151811061064757610647611b75565b60209081029190910101526040810151866106628d86611b62565b8151811061067257610672611b75565b602090810291909101015260608101518561068d8d86611b62565b8151811061069d5761069d611b75565b60200260200101906001600160a01b031690816001600160a01b031681525050505080806106ca90611bc5565b915050610448565b50509295509295909350565b6106e6611499565b6106f082826114f3565b5050565b600080606084600060048260405161070c9190611bde565b908152602001604051809103902060030154116107445760405162461bcd60e51b815260040161073b90611bfa565b60405180910390fd5b60006004876040516107569190611bde565b90815260200160405180910390206040518060c001604052908160008201805461077f90611b8b565b80601f01602080910402602001604051908101604052809291908181526020018280546107ab90611b8b565b80156107f85780601f106107cd576101008083540402835291602001916107f8565b820191906000526020600020905b8154815290600101906020018083116107db57829003601f168201915b5050505050815260200160018201805461081190611b8b565b80601f016020809104026020016040519081016040528092919081815260200182805461083d90611b8b565b801561088a5780601f1061085f5761010080835404028352916020019161088a565b820191906000526020600020905b81548152906001019060200180831161086d57829003601f168201915b505050918352505060028201546001600160a01b0316602082015260038201546040820152600482015460ff16151560608201526005820180546080909201916108d390611b8b565b80601f01602080910402602001604051908101604052809291908181526020018280546108ff90611b8b565b801561094c5780601f106109215761010080835404028352916020019161094c565b820191906000526020600020905b81548152906001019060200180831161092f57829003601f168201915b50505050508152505090508060800151801561097957508580519060200120816020015180519060200120145b9450806060015193508060a00151925050509250925092565b61099a611499565b6001600160a01b03811660009081526006602052604090205460ff16610a195760405162461bcd60e51b815260206004820152602e60248201527f4365727469666963617465566572696669636174696f6e3a204973737565722060448201526d1b9bdd08185d5d1a1bdc9a5e995960921b606482015260840161073b565b6001600160a01b038116600081815260066020526040808220805460ff19169055517f8f3e6dced744d75443e2f2eb94962b368491dc80ec07cd3a3f7896069b6c452c9190a250565b610a6a611499565b610a746000611619565b565b6000610a8160025490565b905090565b610a8e611499565b6001600160a01b038216610afc5760405162461bcd60e51b815260206004820152602f60248201527f4365727469666963617465566572696669636174696f6e3a20496e76616c696460448201526e20697373756572206164647265737360881b606482015260840161073b565b6000815111610b685760405162461bcd60e51b815260206004820152603260248201527f4365727469666963617465566572696669636174696f6e3a20496e73746974756044820152711d1a5bdb881b985b59481c995c5d5a5c995960721b606482015260840161073b565b6001600160a01b03821660008181526006602052604090819020805460ff19166001179055517f4a1726c837046486d7e0af20814f9e585c72cfaa1c46e87414677bc7baab9be290610bbb908490611c4d565b60405180910390a25050565b6000600582604051610bd99190611bde565b9081526040519081900360200190205460ff1692915050565b3360009081526006602052604081205460ff16610c775760405162461bcd60e51b815260206004820152603b60248201527f4365727469666963617465566572696669636174696f6e3a2043616c6c65722060448201527f6973206e6f7420616e20617574686f72697a6564206973737565720000000000606482015260840161073b565b610c7f611669565b828051604014610ce65760405162461bcd60e51b815260206004820152602c60248201527f4365727469666963617465566572696669636174696f6e3a20496e76616c696460448201526b040d0c2e6d040d8cadccee8d60a31b606482015260840161073b565b600584604051610cf69190611bde565b9081526040519081900360200190205460ff1615610dc557610d4d856040518060400160405280601781526020017f4475706c696361746520686173682064657465637465640000000000000000008152506114f3565b60405162461bcd60e51b815260206004820152604160248201527f4365727469666963617465566572696669636174696f6e3a204475706c69636160448201527f74652068617368206465746563746564202d20706f737369626c6520667261756064820152601960fa1b608482015260a40161073b565b600485604051610dd59190611bde565b908152602001604051809103902060030154600014610e555760405162461bcd60e51b815260206004820152603660248201527f4365727469666963617465566572696669636174696f6e3a20436572746966696044820152756361746520494420616c72656164792065786973747360501b606482015260840161073b565b6040805160c0810182528681526020810186905233818301524260608201526001608082015260a081018590529051600490610e92908890611bde565b90815260405190819003602001902081518190610eaf9082611caf565b5060208201516001820190610ec49082611caf565b5060408201516002820180546001600160a01b0319166001600160a01b0390921691909117905560608201516003820155608082015160048201805460ff191691151591909117905560a08201516005820190610f219082611caf565b509050506001600585604051610f379190611bde565b908152604051908190036020019020805491151560ff19909216919091179055600880546001810182556000919091527ff3f7a9fe364faab93b216da50a3214154f22a0a2b415b23a84c8169e8b636ee301610f938682611caf565b50610fa2600280546001019055565b6040513390610fb2908690611bde565b604051809103902086604051610fc89190611bde565b60405180910390207fbb7679cb377c2fe88dbb45cd6b7ffab541e0c3a12fe586da6f8d8fed09cebe608642604051611001929190611d6f565b60405180910390a4505060018080555b9392505050565b6000610a8160035490565b606061102d611499565b60006110398385611b49565b60085490915081111561104b57506008545b6110558482611b62565b67ffffffffffffffff81111561106d5761106d611860565b6040519080825280602002602001820160405280156110a057816020015b606081526020019060019003908161108b5790505b509150835b8181101561118e57600881815481106110c0576110c0611b75565b9060005260206000200180546110d590611b8b565b80601f016020809104026020016040519081016040528092919081815260200182805461110190611b8b565b801561114e5780601f106111235761010080835404028352916020019161114e565b820191906000526020600020905b81548152906001019060200180831161113157829003601f168201915b50505050508386836111609190611b62565b8151811061117057611170611b75565b6020026020010181905250808061118690611bc5565b9150506110a5565b505092915050565b61119e611499565b6001600160a01b0381166112035760405162461bcd60e51b815260206004820152602660248201527f4f776e61626c653a206e6577206f776e657220697320746865207a65726f206160448201526564647265737360d01b606482015260840161073b565b61120c81611619565b50565b60606000806000606085600060048260405161122b9190611bde565b9081526020016040518091039020600301541161125a5760405162461bcd60e51b815260040161073b90611bfa565b600060048860405161126c9190611bde565b90815260200160405180910390206040518060c001604052908160008201805461129590611b8b565b80601f01602080910402602001604051908101604052809291908181526020018280546112c190611b8b565b801561130e5780601f106112e35761010080835404028352916020019161130e565b820191906000526020600020905b8154815290600101906020018083116112f157829003601f168201915b5050505050815260200160018201805461132790611b8b565b80601f016020809104026020016040519081016040528092919081815260200182805461135390611b8b565b80156113a05780601f10611375576101008083540402835291602001916113a0565b820191906000526020600020905b81548152906001019060200180831161138357829003601f168201915b505050918352505060028201546001600160a01b0316602082015260038201546040820152600482015460ff16151560608201526005820180546080909201916113e990611b8b565b80601f016020809104026020016040519081016040528092919081815260200182805461141590611b8b565b80156114625780601f1061143757610100808354040283529160200191611462565b820191906000526020600020905b81548152906001019060200180831161144557829003601f168201915b50505091909252505050602081015160408201516060830151608084015160a090940151929c919b50995091975095509350505050565b6000546001600160a01b03163314610a745760405162461bcd60e51b815260206004820181905260248201527f4f776e61626c653a2063616c6c6572206973206e6f7420746865206f776e6572604482015260640161073b565b60006114fe60035490565b6040805160808101825285815260208082018690524282840152336060830152600084815260079091529190912081519293509091819061153f9082611caf565b50602082015160018201906115549082611caf565b5060408201516002820155606090910151600391820180546001600160a01b0319166001600160a01b0390921691909117905560098054600181810183556000929092527f6e1540171b6c0c960b71a7020d9f60077f6af931a8bbf590da0223dacf75c7af01839055815401905560405133906115d2908590611bde565b6040518091039020827f1e474f0cfb69cca23194bfe60e425f91eea25d286e81d5421f296cf2aeadfb79854260405161160c929190611d6f565b60405180910390a4505050565b600080546001600160a01b038381166001600160a01b0319831681178455604051919092169283917f8be0079c531659141344cd1fd0a4f28419497f9722a3daafe3b4186f6b6457e09190a35050565b6002600154036116bb5760405162461bcd60e51b815260206004820152601f60248201527f5265656e7472616e637947756172643a207265656e7472616e742063616c6c00604482015260640161073b565b6002600155565b600080604083850312156116d557600080fd5b50508035926020909101359150565b600081518084526020808501945080840160005b83811015611714578151875295820195908201906001016116f8565b509495945050505050565b60005b8381101561173a578181015183820152602001611722565b50506000910152565b6000815180845261175b81602086016020860161171f565b601f01601f19169290920160200192915050565b600081518084526020808501808196508360051b8101915082860160005b858110156117b75782840389526117a5848351611743565b9885019893509084019060010161178d565b5091979650505050505050565b60a0815260006117d760a08301886116e4565b6020838203818501526117ea828961176f565b915083820360408501526117fe828861176f565b9150838203606085015261181282876116e4565b8481036080860152855180825282870193509082019060005b818110156118505784516001600160a01b03168352938301939183019160010161182b565b50909a9950505050505050505050565b634e487b7160e01b600052604160045260246000fd5b600082601f83011261188757600080fd5b813567ffffffffffffffff808211156118a2576118a2611860565b604051601f8301601f19908116603f011681019082821181831017156118ca576118ca611860565b816040528381528660208588010111156118e357600080fd5b836020870160208301376000602085830101528094505050505092915050565b6000806040838503121561191657600080fd5b823567ffffffffffffffff8082111561192e57600080fd5b61193a86838701611876565b9350602085013591508082111561195057600080fd5b5061195d85828601611876565b9150509250929050565b83151581528260208201526060604082015260006119886060830184611743565b95945050505050565b80356001600160a01b03811681146119a857600080fd5b919050565b6000602082840312156119bf57600080fd5b61101182611991565b600080604083850312156119db57600080fd5b6119e483611991565b9150602083013567ffffffffffffffff811115611a0057600080fd5b61195d85828601611876565b600060208284031215611a1e57600080fd5b813567ffffffffffffffff811115611a3557600080fd5b611a4184828501611876565b949350505050565b600080600060608486031215611a5e57600080fd5b833567ffffffffffffffff80821115611a7657600080fd5b611a8287838801611876565b94506020860135915080821115611a9857600080fd5b611aa487838801611876565b93506040860135915080821115611aba57600080fd5b50611ac786828701611876565b9150509250925092565b602081526000611011602083018461176f565b60a081526000611af760a0830188611743565b6001600160a01b03871660208401526040830186905284151560608401528281036080840152611b278185611743565b98975050505050505050565b634e487b7160e01b600052601160045260246000fd5b80820180821115611b5c57611b5c611b33565b92915050565b81810381811115611b5c57611b5c611b33565b634e487b7160e01b600052603260045260246000fd5b600181811c90821680611b9f57607f821691505b602082108103611bbf57634e487b7160e01b600052602260045260246000fd5b50919050565b600060018201611bd757611bd7611b33565b5060010190565b60008251611bf081846020870161171f565b9190910192915050565b60208082526033908201527f4365727469666963617465566572696669636174696f6e3a204365727469666960408201527218d85d1948191bd95cc81b9bdd08195e1a5cdd606a1b606082015260800190565b6020815260006110116020830184611743565b601f821115611caa57600081815260208120601f850160051c81016020861015611c875750805b601f850160051c820191505b81811015611ca657828155600101611c93565b5050505b505050565b815167ffffffffffffffff811115611cc957611cc9611860565b611cdd81611cd78454611b8b565b84611c60565b602080601f831160018114611d125760008415611cfa5750858301515b600019600386901b1c1916600185901b178555611ca6565b600085815260208120601f198616915b82811015611d4157888601518255948401946001909101908401611d22565b5085821015611d5f5787850151600019600388901b60f8161c191681555b5050505050600190811b01905550565b604081526000611d826040830185611743565b9050826020830152939250505056fea2646970667358221220b4f1e93d10aa2beae95c684dff107394fe4f109e27c6fb642f66a11097d1a10f64736f6c63430008130033",
  "linkReferences": {},
  "deployedLinkReferences": {}
}