{
  "_format": "hh-sol-artifact-1",
  "contractName": "CertificateVerification",
  "sourceName": "contracts/CertificateVerificationSimple.sol",
  "abi": [
    {
      "inputs": [],
      "stateMutability": "nonpayable",
      "type": "constructor"
    },
    {
      "anonymous": false,
      "inputs": [
        {
          "indexed": true,
          "internalType": "uint256",
          "name": "anomalyId",
          "type": "uint256"
        },
        {
          "indexed": true,
          "internalType": "string",
          "name": "certificateId",
          "type": "string"
        },
        {
          "indexed": false,
          "internalType": "string",
          "name": "reason",
          "type": "string"
        },
        {
          "indexed": true,
          "internalType": "address",
          "name": "reporter",
          "type": "address"
        },
        {
          "indexed": false,
          "internalType": "uint256",
          "name": "timestamp",
          "type": "uint256"
        }
      ],
      "name": "AnomalyDetected",
      "type": "event"
    },
    {
      "anonymous": false,
      "inputs": [
        {
          "indexed": true,
          "internalType": "string",
          "name": "certificateId",
          "type": "string"
        },
        {
          "indexed": true,
          "internalType": "string",
          "name": "hash",
          "type": "string"
        },
        {
          "indexed": true,
          "internalType": "address",
          "name": "issuer",
          "type": "address"
        },
        {
          "indexed": false,
          "internalType": "string",
          "name": "institution",
          "type": "string"
        },
        {
          "indexed": false,
          "internalType": "uint256",
          "name": "timestamp",
          "type": "uint256"
        }
      ],
      "name": "CertificateIssued",
      "type": "event"
    },
    {
      "anonymous": false,
      "inputs": [
        {
          "indexed": true,
          "internalType": "string",
          "name": "certificateId",
          "type": "string"
        },
        {
          "indexed": false,
          "internalType": "bool",
          "name": "isValid",
          "type": "bool"
        },
        {
          "indexed": false,
          "internalType": "uint256",
          "name": "timestamp",
          "type": "uint256"
        }
      ],
      "name": "CertificateVerified",
      "type": "event"
    },
    {
      "anonymous": false,
      "inputs": [
        {
          "indexed": true,
          "internalType": "address",
          "name": "issuer",
          "type": "address"
        },
        {
          "indexed": false,
          "internalType": "string",
          "name": "institution",
          "type": "string"
        }
      ],
      "name": "IssuerAuthorized",
      "type": "event"
    },
    {
      "anonymous": false,
      "inputs": [
        {
          "indexed": true,
          "internalType": "address",
          "name": "issuer",
          "type": "address"
        }
      ],
      "name": "IssuerDeauthorized",
      "type": "event"
    },
    {
      "inputs": [
        {
          "internalType": "address",
          "name": "issuer",
          "type": "address"
        },
        {
          "internalType": "string",
          "name": "institution",
          "type": "string"
        }
      ],
      "name": "authorizeIssuer",
      "outputs": [],
      "stateMutability": "nonpayable",
      "type": "function"
    },
    {
      "inputs": [
        {
          "internalType": "string",
          "name": "hash",
          "type": "string"
        }
      ],
      "name": "checkDuplicateHash",
      "outputs": [
        {
          "internalType": "bool",
          "name": "exists",
          "type": "bool"
        }
      ],
      "stateMutability": "view",
      "type": "function"
    },
    {
      "inputs": [
        {
          "internalType": "address",
          "name": "issuer",
          "type": "address"
        }
      ],
      "name": "deauthorizeIssuer",
      "outputs": [],
      "stateMutability": "nonpayable",
      "type": "function"
    },
    {
      "inputs": [
        {
          "internalType": "uint256",
          "name": "offset",
          "type": "uint256"
        },
        {
          "internalType": "uint256",
          "name": "limit",
          "type": "uint256"
        }
      ],
      "name": "getAnomalies",
      "outputs": [
        {
          "internalType": "uint256[]",
          "name": "anomalyIds",
          "type": "uint256[]"
        },
        {
          "internalType": "string[]",
          "name": "certificateIds",
          "type": "string[]"
        },
        {
          "internalType": "string[]",
          "name": "reasons",
          "type": "string[]"
        },
        {
          "internalType": "uint256[]",
          "name": "timestamps",
          "type": "uint256[]"
        },
        {
          "internalType": "address[]",
          "name": "reporters",
          "type": "address[]"
        }
      ],
      "stateMutability": "view",
      "type": "function"
    },
    {
      "inputs": [
        {
          "internalType": "string",
          "name": "certificateId",
          "type": "string"
        }
      ],
      "name": "getCertificateDetails",
      "outputs": [
        {
          "internalType": "string",
          "name": "hash",
          "type": "string"
        },
        {
          "internalType": "address",
          "name": "issuer",
          "type": "address"
        },
        {
          "internalType": "uint256",
          "name": "timestamp",
          "type": "uint256"
        },
        {
          "internalType": "bool",
          "name": "isActive",
          "type": "bool"
        },
        {
          "internalType": "string",
          "name": "institution",
          "type": "string"
        }
      ],
      "stateMutability": "view",
      "type": "function"
    },
    {
      "inputs": [
        {
          "internalType": "uint256",
          "name": "offset",
          "type": "uint256"
        },
        {
          "internalType": "uint256",
          "name": "limit",
          "type": "uint256"
        }
      ],
      "name": "getCertificateIds",
      "outputs": [
        {
          "internalType": "string[]",
          "name": "certificateIds",
          "type": "string[]"
        }
      ],
      "stateMutability": "view",
      "type": "function"
    },
    {
      "inputs": [],
      "name": "getTotalAnomalies",
      "outputs": [
        {
          "internalType": "uint256",
          "name": "count",
          "type": "uint256"
        }
      ],
      "stateMutability": "view",
      "type": "function"
    },
    {
      "inputs": [],
      "name": "getTotalCertificates",
      "outputs": [
        {
          "internalType": "uint256",
          "name": "count",
          "type": "uint256"
        }
      ],
      "stateMutability": "view",
      "type": "function"
    },
    {
      "inputs": [
        {
          "internalType": "address",
          "name": "issuer",
          "type": "address"
        }
      ],
      "name": "isAuthorizedIssuer",
      "outputs": [
        {
          "internalType": "bool",
          "name": "isAuthorized",
          "type": "bool"
        }
      ],
      "stateMutability": "view",
      "type": "function"
    },
    {
      "inputs": [
        {
          "internalType": "string",
          "name": "certificateId",
          "type": "string"
        },
        {
          "internalType": "string",
          "name": "hash",
          "type": "string"
        },
        {
          "internalType": "string",
          "name": "institution",
          "type": "string"
        }
      ],
      "name": "issueCertificate",
      "outputs": [
        {
          "internalType": "bool",
          "name": "success",
          "type": "bool"
        }
      ],
      "stateMutability": "nonpayable",
      "type": "function"
    },
    {
      "inputs": [
        {
          "internalType": "string",
          "name": "certificateId",
          "type": "string"
        },
        {
          "internalType": "string",
          "name": "reason",
          "type": "string"
        }
      ],
      "name": "reportAnomaly",
      "outputs": [],
      "stateMutability": "nonpayable",
      "type": "function"
    },
    {
      "inputs": [
        {
          "internalType": "string",
          "name": "certificateId",
          "type": "string"
        },
        {
          "internalType": "string",
          "name": "hash",
          "type": "string"
        }
      ],
      "name": "verifyCertificate",
      "outputs": [
        {
          "internalType": "bool",
          "name": "isValid",
          "type": "bool"
        },
        {
          "internalType": "uint256",
          "name": "timestamp",
          "type": "uint256"
        },
        {
          "internalType": "string",
          "name": "institution",
          "type": "string"
        }
      ],
      "stateMutability": "view",
      "type": "function"
    }
  ],
  "bytecode": "0x608060405234801561001057600080fd5b50600880546001600160a01b03191633179055611ca4806100326000396000f3fe608060405234801561001057600080fd5b50600436106100b45760003560e01c80637f8d3a3c116100715780637f8d3a3c1461017e57806382af01d314610191578063beec1caa146101a4578063e662b775146101b7578063e8ddea12146101bf578063fa433b36146101df57600080fd5b8063037bd7b1146100b957806313841e76146100e65780632751f71b146100fb57806331ba19661461011d5780633a71daf4146101595780637843bb791461016c575b600080fd5b6100cc6100c7366004611545565b610203565b6040516100dd95949392919061164a565b60405180910390f35b6100f96100f4366004611789565b610691565b005b61010e610109366004611789565b6106c9565b6040516100dd939291906117ed565b61014961012b366004611833565b6001600160a01b031660009081526004602052604090205460ff1690565b60405190151581526020016100dd565b6100f9610167366004611833565b61095e565b6000545b6040519081526020016100dd565b6100f961018c366004611855565b610a50565b61014961019f366004611899565b610bb3565b6101496101b23660046118d6565b610bde565b600154610170565b6101d26101cd366004611545565b610ffe565b6040516100dd919061195e565b6101f26101ed366004611899565b611194565b6040516100dd959493929190611971565b60085460609081908190819081906001600160a01b031633146102415760405162461bcd60e51b8152600401610238906119c0565b60405180910390fd5b600061024d8789611a26565b60075490915081111561025f57506007545b6102698882611a3f565b67ffffffffffffffff811115610281576102816116e6565b6040519080825280602002602001820160405280156102aa578160200160208202803683370190505b5095506102b78882611a3f565b67ffffffffffffffff8111156102cf576102cf6116e6565b60405190808252806020026020018201604052801561030257816020015b60608152602001906001900390816102ed5790505b50945061030f8882611a3f565b67ffffffffffffffff811115610327576103276116e6565b60405190808252806020026020018201604052801561035a57816020015b60608152602001906001900390816103455790505b5093506103678882611a3f565b67ffffffffffffffff81111561037f5761037f6116e6565b6040519080825280602002602001820160405280156103a8578160200160208202803683370190505b5092506103b58882611a3f565b67ffffffffffffffff8111156103cd576103cd6116e6565b6040519080825280602002602001820160405280156103f6578160200160208202803683370190505b509150875b818110156106855760006007828154811061041857610418611a52565b9060005260206000200154905060006005600083815260200190815260200160002060405180608001604052908160008201805461045590611a68565b80601f016020809104026020016040519081016040528092919081815260200182805461048190611a68565b80156104ce5780601f106104a3576101008083540402835291602001916104ce565b820191906000526020600020905b8154815290600101906020018083116104b157829003601f168201915b505050505081526020016001820180546104e790611a68565b80601f016020809104026020016040519081016040528092919081815260200182805461051390611a68565b80156105605780601f1061053557610100808354040283529160200191610560565b820191906000526020600020905b81548152906001019060200180831161054357829003601f168201915b5050509183525050600282015460208201526003909101546001600160a01b0316604090910152905081896105958d86611a3f565b815181106105a5576105a5611a52565b60209081029190910101528051886105bd8d86611a3f565b815181106105cd576105cd611a52565b60200260200101819052508060200151878c856105ea9190611a3f565b815181106105fa576105fa611a52565b60209081029190910101526040810151866106158d86611a3f565b8151811061062557610625611a52565b60209081029190910101526060810151856106408d86611a3f565b8151811061065057610650611a52565b60200260200101906001600160a01b031690816001600160a01b0316815250505050808061067d90611aa2565b9150506103fb565b50509295509295909350565b6008546001600160a01b031633146106bb5760405162461bcd60e51b8152600401610238906119c0565b6106c5828261141e565b5050565b60008060608460006002826040516106e19190611abb565b908152602001604051809103902060030154116107105760405162461bcd60e51b815260040161023890611ad7565b60006002876040516107229190611abb565b90815260200160405180910390206040518060c001604052908160008201805461074b90611a68565b80601f016020809104026020016040519081016040528092919081815260200182805461077790611a68565b80156107c45780601f10610799576101008083540402835291602001916107c4565b820191906000526020600020905b8154815290600101906020018083116107a757829003601f168201915b505050505081526020016001820180546107dd90611a68565b80601f016020809104026020016040519081016040528092919081815260200182805461080990611a68565b80156108565780601f1061082b57610100808354040283529160200191610856565b820191906000526020600020905b81548152906001019060200180831161083957829003601f168201915b505050918352505060028201546001600160a01b0316602082015260038201546040820152600482015460ff161515606082015260058201805460809092019161089f90611a68565b80601f01602080910402602001604051908101604052809291908181526020018280546108cb90611a68565b80156109185780601f106108ed57610100808354040283529160200191610918565b820191906000526020600020905b8154815290600101906020018083116108fb57829003601f168201915b50505050508152505090508060800151801561094557508580519060200120816020015180519060200120145b9450806060015193508060a00151925050509250925092565b6008546001600160a01b031633146109885760405162461bcd60e51b8152600401610238906119c0565b6001600160a01b03811660009081526004602052604090205460ff16610a075760405162461bcd60e51b815260206004820152602e60248201527f4365727469666963617465566572696669636174696f6e3a204973737565722060448201526d1b9bdd08185d5d1a1bdc9a5e995960921b6064820152608401610238565b6001600160a01b038116600081815260046020526040808220805460ff19169055517f8f3e6dced744d75443e2f2eb94962b368491dc80ec07cd3a3f7896069b6c452c9190a250565b6008546001600160a01b03163314610a7a5760405162461bcd60e51b8152600401610238906119c0565b6001600160a01b038216610ae85760405162461bcd60e51b815260206004820152602f60248201527f4365727469666963617465566572696669636174696f6e3a20496e76616c696460448201526e20697373756572206164647265737360881b6064820152608401610238565b6000815111610b545760405162461bcd60e51b815260206004820152603260248201527f4365727469666963617465566572696669636174696f6e3a20496e73746974756044820152711d1a5bdb881b985b59481c995c5d5a5c995960721b6064820152608401610238565b6001600160a01b03821660008181526004602052604090819020805460ff19166001179055517f4a1726c837046486d7e0af20814f9e585c72cfaa1c46e87414677bc7baab9be290610ba7908490611b2a565b60405180910390a25050565b6000600382604051610bc59190611abb565b9081526040519081900360200190205460ff1692915050565b3360009081526004602052604081205460ff16610c635760405162461bcd60e51b815260206004820152603b60248201527f4365727469666963617465566572696669636174696f6e3a2043616c6c65722060448201527f6973206e6f7420616e20617574686f72697a65642069737375657200000000006064820152608401610238565b828051604014610cca5760405162461bcd60e51b815260206004820152602c60248201527f4365727469666963617465566572696669636174696f6e3a20496e76616c696460448201526b040d0c2e6d040d8cadccee8d60a31b6064820152608401610238565b600384604051610cda9190611abb565b9081526040519081900360200190205460ff1615610da957610d31856040518060400160405280601781526020017f4475706c6963617465206861736820646574656374656400000000000000000081525061141e565b60405162461bcd60e51b815260206004820152604160248201527f4365727469666963617465566572696669636174696f6e3a204475706c69636160448201527f74652068617368206465746563746564202d20706f737369626c6520667261756064820152601960fa1b608482015260a401610238565b600285604051610db99190611abb565b908152602001604051809103902060030154600014610e395760405162461bcd60e51b815260206004820152603660248201527f4365727469666963617465566572696669636174696f6e3a20436572746966696044820152756361746520494420616c72656164792065786973747360501b6064820152608401610238565b6040805160c0810182528681526020810186905233818301524260608201526001608082015260a081018590529051600290610e76908890611abb565b90815260405190819003602001902081518190610e939082611b8c565b5060208201516001820190610ea89082611b8c565b5060408201516002820180546001600160a01b0319166001600160a01b0390921691909117905560608201516003820155608082015160048201805460ff191691151591909117905560a08201516005820190610f059082611b8c565b509050506001600385604051610f1b9190611abb565b908152604051908190036020019020805491151560ff19909216919091179055600680546001810182556000919091527ff652222313e28459528d920b65115c16c04f3efc82aaedc97be59f3f377c0d3f01610f778682611b8c565b50600080549080610f8783611aa2565b90915550506040513390610f9c908690611abb565b604051809103902086604051610fb29190611abb565b60405180910390207fbb7679cb377c2fe88dbb45cd6b7ffab541e0c3a12fe586da6f8d8fed09cebe608642604051610feb929190611c4c565b60405180910390a4506001949350505050565b6008546060906001600160a01b0316331461102b5760405162461bcd60e51b8152600401610238906119c0565b60006110378385611a26565b60065490915081111561104957506006545b6110538482611a3f565b67ffffffffffffffff81111561106b5761106b6116e6565b60405190808252806020026020018201604052801561109e57816020015b60608152602001906001900390816110895790505b509150835b8181101561118c57600681815481106110be576110be611a52565b9060005260206000200180546110d390611a68565b80601f01602080910402602001604051908101604052809291908181526020018280546110ff90611a68565b801561114c5780601f106111215761010080835404028352916020019161114c565b820191906000526020600020905b81548152906001019060200180831161112f57829003601f168201915b505050505083868361115e9190611a3f565b8151811061116e5761116e611a52565b6020026020010181905250808061118490611aa2565b9150506110a3565b505092915050565b6060600080600060608560006002826040516111b09190611abb565b908152602001604051809103902060030154116111df5760405162461bcd60e51b815260040161023890611ad7565b60006002886040516111f19190611abb565b90815260200160405180910390206040518060c001604052908160008201805461121a90611a68565b80601f016020809104026020016040519081016040528092919081815260200182805461124690611a68565b80156112935780601f1061126857610100808354040283529160200191611293565b820191906000526020600020905b81548152906001019060200180831161127657829003601f168201915b505050505081526020016001820180546112ac90611a68565b80601f01602080910402602001604051908101604052809291908181526020018280546112d890611a68565b80156113255780601f106112fa57610100808354040283529160200191611325565b820191906000526020600020905b81548152906001019060200180831161130857829003601f168201915b505050918352505060028201546001600160a01b0316602082015260038201546040820152600482015460ff161515606082015260058201805460809092019161136e90611a68565b80601f016020809104026020016040519081016040528092919081815260200182805461139a90611a68565b80156113e75780601f106113bc576101008083540402835291602001916113e7565b820191906000526020600020905b8154815290600101906020018083116113ca57829003601f168201915b50505091909252505050602081015160408201516060830151608084015160a090940151929c919b50995091975095509350505050565b604080516080810182528381526020808201849052428284015233606083015260015460009081526005909152919091208151819061145d9082611b8c565b50602082015160018201906114729082611b8c565b5060408201516002820155606090910151600390910180546001600160a01b0319166001600160a01b039092169190911790556001805460078054808401825560009182527fa66cc928b5edb82af9bd49922954155ab7b0942694bea4ce44661d9a8736c688018290559091906114e883611aa2565b909155505060405133906114fd908490611abb565b60405180910390206001547f1e474f0cfb69cca23194bfe60e425f91eea25d286e81d5421f296cf2aeadfb798442604051611539929190611c4c565b60405180910390a45050565b6000806040838503121561155857600080fd5b50508035926020909101359150565b600081518084526020808501945080840160005b838110156115975781518752958201959082019060010161157b565b509495945050505050565b60005b838110156115bd5781810151838201526020016115a5565b50506000910152565b600081518084526115de8160208601602086016115a2565b601f01601f19169290920160200192915050565b600082825180855260208086019550808260051b84010181860160005b8481101561163d57601f1986840301895261162b8383516115c6565b9884019892509083019060010161160f565b5090979650505050505050565b60a08152600061165d60a0830188611567565b60208382038185015261167082896115f2565b9150838203604085015261168482886115f2565b915083820360608501526116988287611567565b8481036080860152855180825282870193509082019060005b818110156116d65784516001600160a01b0316835293830193918301916001016116b1565b50909a9950505050505050505050565b634e487b7160e01b600052604160045260246000fd5b600082601f83011261170d57600080fd5b813567ffffffffffffffff80821115611728576117286116e6565b604051601f8301601f19908116603f01168101908282118183101715611750576117506116e6565b8160405283815286602085880101111561176957600080fd5b836020870160208301376000602085830101528094505050505092915050565b6000806040838503121561179c57600080fd5b823567ffffffffffffffff808211156117b457600080fd5b6117c0868387016116fc565b935060208501359150808211156117d657600080fd5b506117e3858286016116fc565b9150509250929050565b831515815282602082015260606040820152600061180e60608301846115c6565b95945050505050565b80356001600160a01b038116811461182e57600080fd5b919050565b60006020828403121561184557600080fd5b61184e82611817565b9392505050565b6000806040838503121561186857600080fd5b61187183611817565b9150602083013567ffffffffffffffff81111561188d57600080fd5b6117e3858286016116fc565b6000602082840312156118ab57600080fd5b813567ffffffffffffffff8111156118c257600080fd5b6118ce848285016116fc565b949350505050565b6000806000606084860312156118eb57600080fd5b833567ffffffffffffffff8082111561190357600080fd5b61190f878388016116fc565b9450602086013591508082111561192557600080fd5b611931878388016116fc565b9350604086013591508082111561194757600080fd5b50611954868287016116fc565b9150509250925092565b60208152600061184e60208301846115f2565b60a08152600061198460a08301886115c6565b6001600160a01b038716602084015260408301869052841515606084015282810360808401526119b481856115c6565b98975050505050505050565b60208082526030908201527f4365727469666963617465566572696669636174696f6e3a2043616c6c65722060408201526f34b9903737ba103a34329037bbb732b960811b606082015260800190565b634e487b7160e01b600052601160045260246000fd5b80820180821115611a3957611a39611a10565b92915050565b81810381811115611a3957611a39611a10565b634e487b7160e01b600052603260045260246000fd5b600181811c90821680611a7c57607f821691505b602082108103611a9c57634e487b7160e01b600052602260045260246000fd5b50919050565b600060018201611ab457611ab4611a10565b5060010190565b60008251611acd8184602087016115a2565b9190910192915050565b60208082526033908201527f4365727469666963617465566572696669636174696f6e3a204365727469666960408201527218d85d1948191bd95cc81b9bdd08195e1a5cdd606a1b606082015260800190565b60208152600061184e60208301846115c6565b601f821115611b8757600081815260208120601f850160051c81016020861015611b645750805b601f850160051c820191505b81811015611b8357828155600101611b70565b5050505b505050565b815167ffffffffffffffff811115611ba657611ba66116e6565b611bba81611bb48454611a68565b84611b3d565b602080601f831160018114611bef5760008415611bd75750858301515b600019600386901b1c1916600185901b178555611b83565b600085815260208120601f198616915b82811015611c1e57888601518255948401946001909101908401611bff565b5085821015611c3c5787850151600019600388901b60f8161c191681555b5050505050600190811b01905550565b604081526000611c5f60408301856115c6565b9050826020830152939250505056fea2646970667358221220adf6ccb625d9619169f47eb13ba53804691b50afddc02cf075d72ccbff8ecb0964736f6c63430008130033",
  "linkReferences": {},
  "deployedLinkReferences": {}
}